{
  "contractName": "Contracts_test01",
  "abi": [
    {
      "inputs": [],
      "stateMutability": "nonpayable",
      "type": "constructor"
    },
    {
      "anonymous": false,
      "inputs": [
        {
          "indexed": false,
          "internalType": "address",
          "name": "player",
          "type": "address"
        }
      ],
      "name": "GameLost",
      "type": "event"
    },
    {
      "anonymous": false,
      "inputs": [
        {
          "indexed": false,
          "internalType": "address",
          "name": "player",
          "type": "address"
        }
      ],
      "name": "GameStarted",
      "type": "event"
    },
    {
      "anonymous": false,
      "inputs": [
        {
          "indexed": false,
          "internalType": "address",
          "name": "player",
          "type": "address"
        },
        {
          "indexed": false,
          "internalType": "uint256",
          "name": "prize",
          "type": "uint256"
        }
      ],
      "name": "GameWon",
      "type": "event"
    },
    {
      "inputs": [
        {
          "internalType": "address",
          "name": "",
          "type": "address"
        }
      ],
      "name": "attempts",
      "outputs": [
        {
          "internalType": "uint256",
          "name": "",
          "type": "uint256"
        }
      ],
      "stateMutability": "view",
      "type": "function",
      "constant": true
    },
    {
      "inputs": [],
      "name": "currentWord",
      "outputs": [
        {
          "internalType": "string",
          "name": "",
          "type": "string"
        }
      ],
      "stateMutability": "view",
      "type": "function",
      "constant": true
    },
    {
      "inputs": [],
      "name": "currentWordIndex",
      "outputs": [
        {
          "internalType": "uint256",
          "name": "",
          "type": "uint256"
        }
      ],
      "stateMutability": "view",
      "type": "function",
      "constant": true
    },
    {
      "inputs": [],
      "name": "entryFee",
      "outputs": [
        {
          "internalType": "uint256",
          "name": "",
          "type": "uint256"
        }
      ],
      "stateMutability": "view",
      "type": "function",
      "constant": true
    },
    {
      "inputs": [
        {
          "internalType": "address",
          "name": "",
          "type": "address"
        }
      ],
      "name": "hasGuessed",
      "outputs": [
        {
          "internalType": "bool",
          "name": "",
          "type": "bool"
        }
      ],
      "stateMutability": "view",
      "type": "function",
      "constant": true
    },
    {
      "inputs": [],
      "name": "owner",
      "outputs": [
        {
          "internalType": "address",
          "name": "",
          "type": "address"
        }
      ],
      "stateMutability": "view",
      "type": "function",
      "constant": true
    },
    {
      "inputs": [
        {
          "internalType": "address",
          "name": "",
          "type": "address"
        }
      ],
      "name": "rewardMultiplier",
      "outputs": [
        {
          "internalType": "uint256",
          "name": "",
          "type": "uint256"
        }
      ],
      "stateMutability": "view",
      "type": "function",
      "constant": true
    },
    {
      "inputs": [
        {
          "internalType": "uint256",
          "name": "",
          "type": "uint256"
        }
      ],
      "name": "words",
      "outputs": [
        {
          "internalType": "string",
          "name": "",
          "type": "string"
        }
      ],
      "stateMutability": "view",
      "type": "function",
      "constant": true
    },
    {
      "inputs": [],
      "name": "startGame",
      "outputs": [],
      "stateMutability": "payable",
      "type": "function",
      "payable": true
    },
    {
      "inputs": [
        {
          "internalType": "string",
          "name": "guessedWord",
          "type": "string"
        }
      ],
      "name": "guessWord",
      "outputs": [],
      "stateMutability": "nonpayable",
      "type": "function"
    },
    {
      "inputs": [],
      "name": "reduceAttemptsAndChangeMultiplier",
      "outputs": [],
      "stateMutability": "nonpayable",
      "type": "function"
    },
    {
      "inputs": [],
      "name": "increaseAttemptsAndChangeMultiplier",
      "outputs": [],
      "stateMutability": "nonpayable",
      "type": "function"
    },
    {
      "inputs": [],
      "name": "withdraw",
      "outputs": [],
      "stateMutability": "nonpayable",
      "type": "function"
    },
    {
      "inputs": [],
      "name": "getCurrentWord",
      "outputs": [
        {
          "internalType": "string",
          "name": "",
          "type": "string"
        }
      ],
      "stateMutability": "view",
      "type": "function",
      "constant": true
    },
    {
      "inputs": [
        {
          "internalType": "address",
          "name": "player",
          "type": "address"
        }
      ],
      "name": "getRewardMultiplier",
      "outputs": [
        {
          "internalType": "uint256",
          "name": "",
          "type": "uint256"
        }
      ],
      "stateMutability": "view",
      "type": "function",
      "constant": true
    },
    {
      "inputs": [],
      "name": "getContractBalance",
      "outputs": [
        {
          "internalType": "uint256",
          "name": "",
          "type": "uint256"
        }
      ],
      "stateMutability": "view",
      "type": "function",
      "constant": true
    }
  ],
  "bytecode": "0x60806040523480156200001157600080fd5b50336000806101000a81548173ffffffffffffffffffffffffffffffffffffffff021916908373ffffffffffffffffffffffffffffffffffffffff16021790555067016345785d8a00006001819055506040518061016001604052806040518060400160405280600681526020017f62616e616e61000000000000000000000000000000000000000000000000000081525081526020016040518060400160405280600681526020017f726162626974000000000000000000000000000000000000000000000000000081525081526020016040518060400160405280600681526020017f6d6f6e6b6579000000000000000000000000000000000000000000000000000081525081526020016040518060400160405280600581526020017f686170707900000000000000000000000000000000000000000000000000000081525081526020016040518060400160405280600581526020017f416e67727900000000000000000000000000000000000000000000000000000081525081526020016040518060400160405280600581526020017f6c656d6f6e00000000000000000000000000000000000000000000000000000081525081526020016040518060400160405280600781526020017f7361646e6573730000000000000000000000000000000000000000000000000081525081526020016040518060400160405280600681526020017f6a6f7966756c000000000000000000000000000000000000000000000000000081525081526020016040518060400160405280600681526020017f6f72616e6765000000000000000000000000000000000000000000000000000081525081526020016040518060400160405280600681526020017f636865727279000000000000000000000000000000000000000000000000000081525081526020016040518060400160405280600681526020017f63727970746f0000000000000000000000000000000000000000000000000000815250815250600290600b620003069291906200030d565b50620004a0565b82805482825590600052602060002090810192821562000361579160200282015b82811115620003605782518290805190602001906200034f92919062000374565b50916020019190600101906200032e565b5b509050620003709190620003fb565b5090565b828054600181600116156101000203166002900490600052602060002090601f016020900481019282601f10620003b757805160ff1916838001178555620003e8565b82800160010185558215620003e8579182015b82811115620003e7578251825591602001919060010190620003ca565b5b509050620003f791906200042c565b5090565b6200042991905b808211156200042557600081816200041b919062000454565b5060010162000402565b5090565b90565b6200045191905b808211156200044d57600081600090555060010162000433565b5090565b90565b50805460018160011615610100020316600290046000825580601f106200047c57506200049d565b601f0160209004906000526020600020908101906200049c91906200042c565b5b50565b61155d80620004b06000396000f3fe6080604052600436106100f35760003560e01c8063884fc8381161008a578063bddd467711610059578063bddd467714610505578063c22523121461051c578063d65ab5f214610581578063eb87ed511461058b576100f3565b8063884fc838146102da5780638a8288061461038e5780638da5cb5b1461041e578063aa5165f414610475576100f3565b80633ccfd60b116100c65780633ccfd60b14610208578063672657be1461021f5780636f9fb98a1461028457806375d250c9146102af576100f3565b8063072ea61c146100f85780630d7efd5814610123578063270f33e61461013a5780632eb401531461019f575b600080fd5b34801561010457600080fd5b5061010d610653565b6040518082815260200191505060405180910390f35b34801561012f57600080fd5b50610138610659565b005b34801561014657600080fd5b506101896004803603602081101561015d57600080fd5b81019080803573ffffffffffffffffffffffffffffffffffffffff1690602001909291905050506107f7565b6040518082815260200191505060405180910390f35b3480156101ab57600080fd5b506101ee600480360360208110156101c257600080fd5b81019080803573ffffffffffffffffffffffffffffffffffffffff16906020019092919050505061080f565b604051808215151515815260200191505060405180910390f35b34801561021457600080fd5b5061021d61082f565b005b34801561022b57600080fd5b5061026e6004803603602081101561024257600080fd5b81019080803573ffffffffffffffffffffffffffffffffffffffff169060200190929190505050610961565b6040518082815260200191505060405180910390f35b34801561029057600080fd5b50610299610979565b6040518082815260200191505060405180910390f35b3480156102bb57600080fd5b506102c4610981565b6040518082815260200191505060405180910390f35b3480156102e657600080fd5b50610313600480360360208110156102fd57600080fd5b8101908080359060200190929190505050610987565b6040518080602001828103825283818151815260200191508051906020019080838360005b83811015610353578082015181840152602081019050610338565b50505050905090810190601f1680156103805780820380516001836020036101000a031916815260200191505b509250505060405180910390f35b34801561039a57600080fd5b506103a3610a40565b6040518080602001828103825283818151815260200191508051906020019080838360005b838110156103e35780820151818401526020810190506103c8565b50505050905090810190601f1680156104105780820380516001836020036101000a031916815260200191505b509250505060405180910390f35b34801561042a57600080fd5b50610433610ae2565b604051808273ffffffffffffffffffffffffffffffffffffffff1673ffffffffffffffffffffffffffffffffffffffff16815260200191505060405180910390f35b34801561048157600080fd5b5061048a610b07565b6040518080602001828103825283818151815260200191508051906020019080838360005b838110156104ca5780820151818401526020810190506104af565b50505050905090810190601f1680156104f75780820380516001836020036101000a031916815260200191505b509250505060405180910390f35b34801561051157600080fd5b5061051a610ba5565b005b34801561052857600080fd5b5061056b6004803603602081101561053f57600080fd5b81019080803573ffffffffffffffffffffffffffffffffffffffff169060200190929190505050610c8c565b6040518082815260200191505060405180910390f35b610589610cd5565b005b34801561059757600080fd5b50610651600480360360208110156105ae57600080fd5b81019080803590602001906401000000008111156105cb57600080fd5b8201836020820111156105dd57600080fd5b803590602001918460018302840111640100000000831117156105ff57600080fd5b91908080601f016020809104026020016040519081016040528093929190818152602001838380828437600081840152601f19601f820116905080830192505050505050509192919290505050610e9a565b005b60015481565b6004600560003373ffffffffffffffffffffffffffffffffffffffff1673ffffffffffffffffffffffffffffffffffffffff16815260200190815260200160002054101561070f576040517f08c379a000000000000000000000000000000000000000000000000000000000815260040180806020018281038252601e8152602001807f43616e6e6f742072656475636520617474656d7074732066757274686572000081525060200191505060405180910390fd5b600060646096600760003373ffffffffffffffffffffffffffffffffffffffff1673ffffffffffffffffffffffffffffffffffffffff16815260200190815260200160002054028161075d57fe5b04905080600760003373ffffffffffffffffffffffffffffffffffffffff1673ffffffffffffffffffffffffffffffffffffffff16815260200190815260200160002081905550600560003373ffffffffffffffffffffffffffffffffffffffff1673ffffffffffffffffffffffffffffffffffffffff168152602001908152602001600020600081548092919060019003919050555050565b60076020528060005260406000206000915090505481565b60066020528060005260406000206000915054906101000a900460ff1681565b6000809054906101000a900473ffffffffffffffffffffffffffffffffffffffff1673ffffffffffffffffffffffffffffffffffffffff163373ffffffffffffffffffffffffffffffffffffffff16146108f1576040517f08c379a000000000000000000000000000000000000000000000000000000000815260040180806020018281038252600d8152602001807f4e6f7420746865206f776e65720000000000000000000000000000000000000081525060200191505060405180910390fd5b60004790506000809054906101000a900473ffffffffffffffffffffffffffffffffffffffff1673ffffffffffffffffffffffffffffffffffffffff166108fc829081150290604051600060405180830381858888f1935050505015801561095d573d6000803e3d6000fd5b5050565b60056020528060005260406000206000915090505481565b600047905090565b60045481565b6002818154811061099457fe5b906000526020600020016000915090508054600181600116156101000203166002900480601f016020809104026020016040519081016040528092919081815260200182805460018160011615610100020316600290048015610a385780601f10610a0d57610100808354040283529160200191610a38565b820191906000526020600020905b815481529060010190602001808311610a1b57829003601f168201915b505050505081565b606060038054600181600116156101000203166002900480601f016020809104026020016040519081016040528092919081815260200182805460018160011615610100020316600290048015610ad85780601f10610aad57610100808354040283529160200191610ad8565b820191906000526020600020905b815481529060010190602001808311610abb57829003601f168201915b5050505050905090565b6000809054906101000a900473ffffffffffffffffffffffffffffffffffffffff1681565b60038054600181600116156101000203166002900480601f016020809104026020016040519081016040528092919081815260200182805460018160011615610100020316600290048015610b9d5780601f10610b7257610100808354040283529160200191610b9d565b820191906000526020600020905b815481529060010190602001808311610b8057829003601f168201915b505050505081565b600060646032600760003373ffffffffffffffffffffffffffffffffffffffff1673ffffffffffffffffffffffffffffffffffffffff168152602001908152602001600020540281610bf357fe5b04905080600760003373ffffffffffffffffffffffffffffffffffffffff1673ffffffffffffffffffffffffffffffffffffffff16815260200190815260200160002081905550600560003373ffffffffffffffffffffffffffffffffffffffff1673ffffffffffffffffffffffffffffffffffffffff1681526020019081526020016000206000815480929190600101919050555050565b6000600760008373ffffffffffffffffffffffffffffffffffffffff1673ffffffffffffffffffffffffffffffffffffffff168152602001908152602001600020549050919050565b6001543414610d4c576040517f08c379a00000000000000000000000000000000000000000000000000000000081526004018080602001828103825260138152602001807f496e636f727265637420656e747279206665650000000000000000000000000081525060200191505060405180910390fd5b60058060003373ffffffffffffffffffffffffffffffffffffffff1673ffffffffffffffffffffffffffffffffffffffff168152602001908152602001600020819055506000600660003373ffffffffffffffffffffffffffffffffffffffff1673ffffffffffffffffffffffffffffffffffffffff16815260200190815260200160002060006101000a81548160ff02191690831515021790555060c8600760003373ffffffffffffffffffffffffffffffffffffffff1673ffffffffffffffffffffffffffffffffffffffff16815260200190815260200160002081905550610e356113f4565b7f67cf7f1535e1c1323fe4e76266f7d55f0c1f67fdf449db65e014f9d35881514d33604051808273ffffffffffffffffffffffffffffffffffffffff1673ffffffffffffffffffffffffffffffffffffffff16815260200191505060405180910390a1565b6000600560003373ffffffffffffffffffffffffffffffffffffffff1673ffffffffffffffffffffffffffffffffffffffff1681526020019081526020016000205411610f4f576040517f08c379a00000000000000000000000000000000000000000000000000000000081526004018080602001828103825260108152602001807f47616d65206e6f7420737461727465640000000000000000000000000000000081525060200191505060405180910390fd5b600660003373ffffffffffffffffffffffffffffffffffffffff1673ffffffffffffffffffffffffffffffffffffffff16815260200190815260200160002060009054906101000a900460ff161561100f576040517f08c379a00000000000000000000000000000000000000000000000000000000081526004018080602001828103825260188152602001807f416c726561647920677565737365642074686520776f7264000000000000000081525060200191505060405180910390fd5b6003604051602001808280546001816001161561010002031660029004801561106f5780601f1061104d57610100808354040283529182019161106f565b820191906000526020600020905b81548152906001019060200180831161105b575b505091505060405160208183030381529060405280519060200120816040516020018082805190602001908083835b602083106110c1578051825260208201915060208101905060208303925061109e565b6001836020036101000a0380198251168184511680821785525050505050509050019150506040516020818303038152906040528051906020012014156112af576001600660003373ffffffffffffffffffffffffffffffffffffffff1673ffffffffffffffffffffffffffffffffffffffff16815260200190815260200160002060006101000a81548160ff0219169083151502179055506000600760003373ffffffffffffffffffffffffffffffffffffffff1673ffffffffffffffffffffffffffffffffffffffff168152602001908152602001600020549050600060648260015402816111ae57fe5b0490503373ffffffffffffffffffffffffffffffffffffffff166108fc829081150290604051600060405180830381858888f193505050501580156111f7573d6000803e3d6000fd5b506000600560003373ffffffffffffffffffffffffffffffffffffffff1673ffffffffffffffffffffffffffffffffffffffff168152602001908152602001600020819055507fdae072d96ce4f8bfc6557d4e8c29e0d1875b50c4efe52b340ab49669ec42ebe63382604051808373ffffffffffffffffffffffffffffffffffffffff1673ffffffffffffffffffffffffffffffffffffffff1681526020018281526020019250505060405180910390a150506113f1565b600560003373ffffffffffffffffffffffffffffffffffffffff1673ffffffffffffffffffffffffffffffffffffffff16815260200190815260200160002060008154809291906001900391905055506001600560003373ffffffffffffffffffffffffffffffffffffffff1673ffffffffffffffffffffffffffffffffffffffff1681526020019081526020016000205410156113f0576000600560003373ffffffffffffffffffffffffffffffffffffffff1673ffffffffffffffffffffffffffffffffffffffff168152602001908152602001600020819055507fe52eca3d39fb231ad76fbb2384560be97f13bf0d9b9739a6d31c93acd38c4d9433604051808273ffffffffffffffffffffffffffffffffffffffff1673ffffffffffffffffffffffffffffffffffffffff16815260200191505060405180910390a15b5b50565b6000600280549050424460405160200180838152602001828152602001925050506040516020818303038152906040528051906020012060001c8161143557fe5b069050806004819055506002818154811061144c57fe5b906000526020600020016003908054600181600116156101000203166002900461147792919061147b565b5050565b828054600181600116156101000203166002900490600052602060002090601f016020900481019282601f106114b457805485556114f1565b828001600101855582156114f157600052602060002091601f016020900482015b828111156114f05782548255916001019190600101906114d5565b5b5090506114fe9190611502565b5090565b61152491905b80821115611520576000816000905550600101611508565b5090565b9056fea264697066735822122055024eff6099c44dd9290e3ef9a1eac298f2efb4ca708651dac1e4f83f0b6dbd64736f6c63430006010033",
  "source": "// SPDX-License-Identifier: MIT\r\npragma solidity >=0.4.22 <0.9.0;\r\n\r\ncontract Contracts_test01 {\r\n   address public owner; // 계약을 소유한 소유자의 주소입니다.\r\n    uint256 public entryFee; // 게임 참가비로 설정된 0.1 이더입니다.\r\n    \r\n    string[] public words; // 게임에서 사용될 단어 목록입니다.\r\n    string public currentWord; // 현재 게임의 정답 단어입니다.\r\n    uint256 public currentWordIndex; // 현재 게임의 정답 단어의 인덱스입니다.\r\n    \r\n    mapping(address => uint256) public attempts; // 각 플레이어의 시도 횟수를 저장하는 매핑입니다.\r\n    mapping(address => bool) public hasGuessed; // 각 플레이어가 정답을 맞췄는지 여부를 저장하는 매핑입니다.\r\n    mapping(address => uint256) public rewardMultiplier; // 각 플레이어의 보상 배율을 저장하는 매핑입니다.\r\n\r\n    event GameStarted(address player); // 게임이 시작될 때 발생하는 이벤트입니다.\r\n    event GameWon(address player, uint256 prize); // 플레이어가 게임에서 이겼을 때 발생하는 이벤트입니다.\r\n    event GameLost(address player);// 플레이어가 게임에서 졌을 때 발생하는 이벤트입니다.\r\n\r\n    // 오직 소유자만 특정 기능을 실행할 수 있도록 제한하는 수식어입니다.\r\n    modifier onlyOwner() { \r\n        require(msg.sender == owner, \"Not the owner\");\r\n        _;\r\n    }\r\n\r\n    // 계약이 배포될 때 실행되는 생성자입니다. 소유자를 설정합니다.\r\n    constructor() public { \r\n        owner = msg.sender;\r\n        entryFee = 0.1 ether; // 참가비는 0.1 이더\r\n        words = [\"banana\", \"rabbit\", \"monkey\", \"happy\", \"Angry\", \"lemon\", \"sadness\", \"joyful\", \"orange\", \"cherry\", \"crypto\"];\r\n    }\r\n\r\n    // 단어 목록에서 랜덤하게 단어를 선택하여 현재 단어로 설정합니다.\r\n    function selectRandomWord() internal { \r\n        uint256 index = uint256(keccak256(abi.encodePacked(block.timestamp, block.difficulty))) % words.length;\r\n        currentWordIndex = index;\r\n        currentWord = words[index];\r\n    }\r\n\r\n    // 게임을 시작하는 함수입니다. 참가비를 지불하고 시도 횟수를 초기화합니다.\r\n    function startGame() public payable {\r\n        require(msg.value == entryFee, \"Incorrect entry fee\");\r\n        // require(attempts[msg.sender] == 0, \"Game already started\");\r\n\r\n        attempts[msg.sender] = 5; // 사용자의 기회를 5번으로 설정합니다.\r\n        hasGuessed[msg.sender] = false;\r\n        rewardMultiplier[msg.sender] = 200; // 기본 보상 배율을 2배로 설정합니다.\r\n\r\n        selectRandomWord();\r\n        emit GameStarted(msg.sender);\r\n    }\r\n\r\n    // 사용자가 단어를 추측하고 결과에 따라 처리합니다. 맞추면 상금을 지급하고, 틀리면 시도 횟수를 감소시킵니다.\r\n    function guessWord(string memory guessedWord) public {\r\n        require(attempts[msg.sender] > 0, \"Game not started\");\r\n        require(!hasGuessed[msg.sender], \"Already guessed the word\");\r\n\r\n        if (keccak256(abi.encodePacked(guessedWord)) == keccak256(abi.encodePacked(currentWord))) {\r\n            hasGuessed[msg.sender] = true;\r\n            uint256 multiplier = rewardMultiplier[msg.sender]; // 사용자가 선택한 보상 배율을 가져옵니다.\r\n            uint256 prize = entryFee * multiplier / 100; // 보상을 계산합니다.\r\n            payable(msg.sender).transfer(prize);\r\n\r\n            attempts[msg.sender] = 0;\r\n            emit GameWon(msg.sender, prize);\r\n        } else {\r\n            attempts[msg.sender]--; // 사용자의 기회를 감소시킵니다.\r\n            if (attempts[msg.sender] < 1) {\r\n                attempts[msg.sender] = 0;\r\n                emit GameLost(msg.sender);\r\n            }\r\n        }\r\n    }\r\n\r\n    // 사용자가 기회를 줄이고 보상 배율을 변경하는 함수입니다.\r\n    function reduceAttemptsAndChangeMultiplier() public {\r\n        require(attempts[msg.sender] >= 4, \"Cannot reduce attempts further\"); //첫 입력 시기까지만 난이도 조절 허용\r\n        \r\n        // 기존 보상 배율에서 1.5배를 계산합니다.\r\n        uint256 newMultiplier = rewardMultiplier[msg.sender] * 150 / 100;\r\n        rewardMultiplier[msg.sender] = newMultiplier; // 보상 배율을 변경합니다.\r\n        attempts[msg.sender]--; // 사용자의 기회를 감소시킵니다.\r\n    }\r\n\r\n    // 사용자가 기회를 늘리고 보상 배율을 줄이는 함수입니다.\r\n    function increaseAttemptsAndChangeMultiplier() public {        \r\n        // 기존 보상 배율에서 0.5배를 계산합니다.\r\n        uint256 newMultiplier = rewardMultiplier[msg.sender] * 50 / 100;\r\n        rewardMultiplier[msg.sender] = newMultiplier; // 보상 배율을 변경합니다.\r\n        attempts[msg.sender]++; // 사용자의 기회를 증가시킵니다.\r\n    }\r\n\r\n    // 소유자가 계약의 잔액을 출금할 수 있는 함수입니다.\r\n    function withdraw() public onlyOwner {\r\n        uint256 balance = address(this).balance;\r\n        payable(owner).transfer(balance);\r\n    }\r\n    \r\n    // 현재 단어를 반환하는 함수입니다. \r\n    function getCurrentWord() public view returns (string memory) {\r\n        return currentWord;\r\n    }\r\n\r\n    // 사용자가 선택한 보상 배율을 반환하는 함수입니다.\r\n    function getRewardMultiplier(address player) public view returns (uint256) {\r\n        return rewardMultiplier[player];\r\n    }\r\n\r\n    // 컨트랙트 잔액을 반환하는 함수입니다.\r\n    function getContractBalance() public view returns (uint256) {\r\n        return address(this).balance;\r\n    }\r\n}",
  "sourcePath": "C:\\Users\\PC2307\\Desktop\\solidity_workspace\\game_test03\\contracts\\contracts\\Contracts_test01.sol",
  "compiler": {
    "name": "solc",
    "version": "0.6.1+commit.e6f7d5a4.Emscripten.clang"
  },
  "schemaVersion": "3.4.16",
  "updatedAt": "2024-06-11T12:36:22.933Z",
  "networkType": "ethereum",
  "devdoc": {
    "methods": {}
  },
  "userdoc": {
    "methods": {}
  }
}